{
  "_format": "hh-sol-artifact-1",
  "contractName": "PayToWin",
  "sourceName": "contracts/PayToWin.sol",
  "abi": [
    {
      "anonymous": false,
      "inputs": [
        {
          "indexed": false,
          "internalType": "address",
          "name": "who",
          "type": "address"
        },
        {
          "indexed": false,
          "internalType": "uint256",
          "name": "score",
          "type": "uint256"
        }
      ],
      "name": "NewScore",
      "type": "event"
    },
    {
      "inputs": [],
      "name": "areYouWinningSon",
      "outputs": [
        {
          "internalType": "uint256",
          "name": "position",
          "type": "uint256"
        },
        {
          "components": [
            {
              "internalType": "string",
              "name": "name",
              "type": "string"
            },
            {
              "internalType": "uint256",
              "name": "score",
              "type": "uint256"
            }
          ],
          "internalType": "struct PayToWin.Player",
          "name": "",
          "type": "tuple"
        }
      ],
      "stateMutability": "view",
      "type": "function"
    },
    {
      "inputs": [],
      "name": "getPlayerCount",
      "outputs": [
        {
          "internalType": "uint256",
          "name": "",
          "type": "uint256"
        }
      ],
      "stateMutability": "view",
      "type": "function"
    },
    {
      "inputs": [],
      "name": "getUnsortedLeaderboard",
      "outputs": [
        {
          "components": [
            {
              "internalType": "string",
              "name": "name",
              "type": "string"
            },
            {
              "internalType": "uint256",
              "name": "score",
              "type": "uint256"
            }
          ],
          "internalType": "struct PayToWin.Player[]",
          "name": "playerList",
          "type": "tuple[]"
        }
      ],
      "stateMutability": "view",
      "type": "function"
    },
    {
      "inputs": [
        {
          "internalType": "string",
          "name": "name",
          "type": "string"
        }
      ],
      "name": "pay",
      "outputs": [],
      "stateMutability": "payable",
      "type": "function"
    }
  ],
  "bytecode": "0x608060405234801561001057600080fd5b50610ff0806100206000396000f3fe60806040526004361061003f5760003560e01c806319e365db146100445780632b66d72e1461006f578063c2e522061461008b578063e04e701d146100b6575b600080fd5b34801561005057600080fd5b506100596100e2565b6040516100669190610c89565b60405180910390f35b610089600480360381019061008491906109d7565b61030d565b005b34801561009757600080fd5b506100a0610413565b6040516100ad9190610ccd565b60405180910390f35b3480156100c257600080fd5b506100cb610424565b6040516100d9929190610ce8565b60405180910390f35b60606100ee600161052a565b67ffffffffffffffff81111561012d577f4e487b7100000000000000000000000000000000000000000000000000000000600052604160045260246000fd5b60405190808252806020026020018201604052801561016657816020015b6101536108b2565b81526020019060019003908161014b5790505b50905060005b610176600161052a565b8110156103095760006101ca826040518060400160405280601881526020017f6661696c656420746f2066696e6420706c61796572206964000000000000000081525060026105389092919063ffffffff16565b90506000808273ffffffffffffffffffffffffffffffffffffffff1673ffffffffffffffffffffffffffffffffffffffff16815260200190815260200160002060405180604001604052908160008201805461022590610ea1565b80601f016020809104026020016040519081016040528092919081815260200182805461025190610ea1565b801561029e5780601f106102735761010080835404028352916020019161029e565b820191906000526020600020905b81548152906001019060200180831161028157829003601f168201915b505050505081526020016001820154815250508383815181106102ea577f4e487b7100000000000000000000000000000000000000000000000000000000600052603260045260246000fd5b602002602001018190525050808061030190610ed3565b91505061016c565b5090565b60008060003373ffffffffffffffffffffffffffffffffffffffff1673ffffffffffffffffffffffffffffffffffffffff16815260200190815260200160002090506000816001015414156103875761037b610369600161052a565b3360026105579092919063ffffffff16565b50610386600161058c565b5b3481600101546103979190610dff565b8160010181905550816040516020016103b09190610c5b565b60405160208183030381529060405280519060200120816000016040516020016103da9190610c72565b604051602081830303815290604052805190602001201461040f578181600001908051906020019061040d9291906108cc565b505b5050565b600061041f600161052a565b905090565b600061042e6108b2565b610437336105a2565b9150816000803373ffffffffffffffffffffffffffffffffffffffff1673ffffffffffffffffffffffffffffffffffffffff1681526020019081526020016000208060405180604001604052908160008201805461049490610ea1565b80601f01602080910402602001604051908101604052809291908181526020018280546104c090610ea1565b801561050d5780601f106104e25761010080835404028352916020019161050d565b820191906000526020600020905b8154815290600101906020018083116104f057829003601f168201915b505050505081526020016001820154815250509050915091509091565b600081600001549050919050565b600061054b846000018460001b84610715565b60001c90509392505050565b6000610583846000018460001b8473ffffffffffffffffffffffffffffffffffffffff1660001b610796565b90509392505050565b6001816000016000828254019250508190555050565b6000806000808473ffffffffffffffffffffffffffffffffffffffff1673ffffffffffffffffffffffffffffffffffffffff168152602001908152602001600020600101549050600080600090505b6105fb600161052a565b8110156106f857600061064f826040518060400160405280601881526020017f6661696c656420746f2066696e6420706c61796572206964000000000000000081525060026105389092919063ffffffff16565b90508073ffffffffffffffffffffffffffffffffffffffff168673ffffffffffffffffffffffffffffffffffffffff16141561068b57506106e5565b836000808373ffffffffffffffffffffffffffffffffffffffff1673ffffffffffffffffffffffffffffffffffffffff1681526020019081526020016000206001015411156106e35782806106df90610ed3565b9350505b505b80806106f090610ed3565b9150506105f1565b5060006001826107089190610dff565b9050809350505050919050565b6000808460020160008581526020019081526020016000205490506000801b81141580610748575061074785856107d1565b5b839061078a576040517f08c379a00000000000000000000000000000000000000000000000000000000081526004016107819190610cab565b60405180910390fd5b50809150509392505050565b600081846002016000858152602001908152602001600020819055506107c883856000016107f190919063ffffffff16565b90509392505050565b60006107e9828460000161080890919063ffffffff16565b905092915050565b6000610800836000018361081f565b905092915050565b6000610817836000018361088f565b905092915050565b600061082b838361088f565b610884578260000182908060018154018082558091505060019003906000526020600020016000909190919091505582600001805490508360010160008481526020019081526020016000208190555060019050610889565b600090505b92915050565b600080836001016000848152602001908152602001600020541415905092915050565b604051806040016040528060608152602001600081525090565b8280546108d890610ea1565b90600052602060002090601f0160209004810192826108fa5760008555610941565b82601f1061091357805160ff1916838001178555610941565b82800160010185558215610941579182015b82811115610940578251825591602001919060010190610925565b5b50905061094e9190610952565b5090565b5b8082111561096b576000816000905550600101610953565b5090565b600061098261097d84610d49565b610d18565b90508281526020810184848401111561099a57600080fd5b6109a5848285610e5f565b509392505050565b600082601f8301126109be57600080fd5b81356109ce84826020860161096f565b91505092915050565b6000602082840312156109e957600080fd5b600082013567ffffffffffffffff811115610a0357600080fd5b610a0f848285016109ad565b91505092915050565b6000610a248383610bc3565b905092915050565b6000610a3782610d9e565b610a418185610dc1565b935083602082028501610a5385610d79565b8060005b85811015610a8f5784840389528151610a708582610a18565b9450610a7b83610db4565b925060208a01995050600181019050610a57565b50829750879550505050505092915050565b6000610aac82610da9565b610ab68185610dd2565b9350610ac6818560208601610e6e565b610acf81610fa9565b840191505092915050565b6000610ae582610da9565b610aef8185610de3565b9350610aff818560208601610e6e565b610b0881610fa9565b840191505092915050565b6000610b1e82610da9565b610b288185610df4565b9350610b38818560208601610e6e565b80840191505092915050565b60008154610b5181610ea1565b610b5b8186610df4565b94506001821660008114610b765760018114610b8757610bba565b60ff19831686528186019350610bba565b610b9085610d89565b60005b83811015610bb257815481890152600182019150602081019050610b93565b838801955050505b50505092915050565b60006040830160008301518482036000860152610be08282610aa1565b9150506020830151610bf56020860182610c3d565b508091505092915050565b60006040830160008301518482036000860152610c1d8282610aa1565b9150506020830151610c326020860182610c3d565b508091505092915050565b610c4681610e55565b82525050565b610c5581610e55565b82525050565b6000610c678284610b13565b915081905092915050565b6000610c7e8284610b44565b915081905092915050565b60006020820190508181036000830152610ca38184610a2c565b905092915050565b60006020820190508181036000830152610cc58184610ada565b905092915050565b6000602082019050610ce26000830184610c4c565b92915050565b6000604082019050610cfd6000830185610c4c565b8181036020830152610d0f8184610c00565b90509392505050565b6000604051905081810181811067ffffffffffffffff82111715610d3f57610d3e610f7a565b5b8060405250919050565b600067ffffffffffffffff821115610d6457610d63610f7a565b5b601f19601f8301169050602081019050919050565b6000819050602082019050919050565b60008190508160005260206000209050919050565b600081519050919050565b600081519050919050565b6000602082019050919050565b600082825260208201905092915050565b600082825260208201905092915050565b600082825260208201905092915050565b600081905092915050565b6000610e0a82610e55565b9150610e1583610e55565b9250827fffffffffffffffffffffffffffffffffffffffffffffffffffffffffffffffff03821115610e4a57610e49610f1c565b5b828201905092915050565b6000819050919050565b82818337600083830152505050565b60005b83811015610e8c578082015181840152602081019050610e71565b83811115610e9b576000848401525b50505050565b60006002820490506001821680610eb957607f821691505b60208210811415610ecd57610ecc610f4b565b5b50919050565b6000610ede82610e55565b91507fffffffffffffffffffffffffffffffffffffffffffffffffffffffffffffffff821415610f1157610f10610f1c565b5b600182019050919050565b7f4e487b7100000000000000000000000000000000000000000000000000000000600052601160045260246000fd5b7f4e487b7100000000000000000000000000000000000000000000000000000000600052602260045260246000fd5b7f4e487b7100000000000000000000000000000000000000000000000000000000600052604160045260246000fd5b6000601f19601f830116905091905056fea2646970667358221220dac41e44f4a7db97de5bd0789703773114a533fc589adf9df38d28aed96fc2eb64736f6c63430008000033",
  "linkReferences": {},
  "deployedLinkReferences": {}
}